:100000000C9434000C9451000C9451000C94510049
:100010000C9451000C9451000C9451000C9451001C
:100020000C9451000C9451000C9451000C9451000C
:100030000C9451000C9451000C9451000C945100FC
:100040000C94CD000C9451000C9451000C94510070
:100050000C9451000C9453000C9451000C945100DA
:100060000C9451000C94510011241FBECFEFD8E026
:10007000DEBFCDBF11E0A0E0B1E0EAE8F2E002C0EF
:1000800005900D92A031B107D9F721E0A0E1B1E0D0
:1000900001C01D92A431B207E1F70E943C010C940B
:1000A00043010C9400001F920F920FB60F9211247F
:1000B0008F93EF93FF938091790080931201EAE789
:1000C000F0E0808180648083FF91EF918F910F90A9
:1000D0000FBE0F901F901895ECE7F0E01082808122
:1000E00086668083EAE7F0E0108280818B688083F7
:1000F0008081806480830895F8949FEF94B987B1DC
:100100008C6087B91092C10015B888B1837F88B917
:1001100087B18F7C87B988B1806388B99AB987B174
:10012000836087B987B18F7B87B988B18F7B88B9A6
:1001300014BC85E085BD84E686BD81E080936E00B9
:1001400010921301109210010E946C00789408958F
:10015000E09112019E2F92959F70EF7088B18C7F75
:1001600088B98091110181110DC0E92FF0E0E050B4
:10017000FF4F80818BB988B1826088B981E080931C
:1001800011010895F0E0E050FF4F80818BB988B1F4
:10019000816088B91092110108951F920F920FB6D5
:1001A0000F9211242F933F934F935F936F937F93FD
:1001B0008F939F93AF93BF93EF93FF9384E686BD96
:1001C000809113018F5F80931301882321F0109297
:1001D00013010E94A800FF91EF91BF91AF919F91F1
:1001E0008F917F916F915F914F913F912F910F90E0
:1001F0000FBE0F901F901895809110018F7385B9D5
:100200008091100186FF04C088B1846088B903C062
:1002100088B18B7F88B980911001882324F488B13C
:10022000886088B9089588B1877F88B9089534991E
:1002300009C0809110018F5F809310010E94FC0023
:10024000349BFECF359909C0809110018150809375
:1002500010010E94FC00359BFECF08959091120181
:1002600080911001981720F08BB182608BB90895AE
:100270008BB18D7F8BB908950E947C000E9417017D
:0A0280000E942E01FBCFF894FFCF7F
:10028A0020771A1147838037000504C0A850888C4C
:00000001FF
